:020000040800F2
:100000000050002085250008A9220008B122000820
:10001000B9220008C1220008C9220008000000001F
:10002000000000000000000000000000D1220008D5
:10003000DD22000800000000E9220008F522000887
:10004000CD250008CD250008CD250008CD250008C8
:10005000CD250008CD250008CD250008CD250008B8
:10006000CD250008CD250008CD250008CD250008A8
:10007000CD250008CD25000801230008CD25000866
:10008000CD250008CD250008CD250008CD25000888
:10009000CD250008CD250008CD2500081523000832
:1000A000CD250008D5230008CD250008CD25000862
:1000B0003125000845250008CD250008CD2500087C
:1000C000CD250008CD250008CD250008CD25000848
:1000D000CD250008CD25000865250008CD250008A0
:1000E000CD250008CD250008CD2500080000000022
:1000F0000000000000000000000000000000000000
:0C01000000000000000000005FF808F1A3
:10010C0010B5054C237833B9044B13B10448AFF345
:10011C0000800123237010BD0C00002000000000A3
:10012C005863000808B5034B1BB103490348AFF3F0
:10013C00008008BD0000000010000020586300087B
:10014C0080F0004002E000BF81F0004142001FBF80
:10015C005FEA410392EA030F7FEA226C7FEA236C89
:10016C006AD04FEA1262D2EB1363C1BFD21841407E
:10017C0048404140B8BF5B42192B88BF704710F014
:10018C00004F40F4000020F07F4018BF404211F0B7
:10019C00004F41F4000121F07F4118BF494292EA1F
:1001AC00030F3FD0A2F1010241FA03FC10EB0C004B
:1001BC00C3F1200301FA03F100F0004302D54942D8
:1001CC0060EB4000B0F5000F13D3B0F1807F06D385
:1001DC0040084FEA310102F10102FE2A51D2B1F17D
:1001EC00004F40EBC25008BF20F0010040EA030072
:1001FC007047490040EB0000013A28BFB0F5000FF2
:10020C00EDD2B0FA80FCACF1080CB2EB0C0200FAA7
:10021C000CF0AABF00EBC25052421843BCBFD040F6
:10022C001843704792F0000F81F4000106BF80F470
:10023C0000000132013BB5E74FEA41037FEA226C33
:10024C0018BF7FEA236C21D092EA030F04D092F0FE
:10025C00000F08BF0846704790EA010F1CBF002032
:10026C00704712F07F4F04D1400028BF40F000408F
:10027C00704712F100723CBF00F50000704700F0AF
:10028C00004343F0FE4040F4000070477FEA2262D6
:10029C0016BF08467FEA23630146420206BF5FEAA7
:1002AC00412390EA010F40F4800070474FF00003A7
:1002BC0004E000BF10F0004348BF40425FEA000C6E
:1002CC0008BF704743F0964301464FF000001CE016
:1002DC0050EA010208BF70474FF000030AE000BF6C
:1002EC0050EA010208BF704711F0004302D54042AA
:1002FC0061EB41015FEA010C02BF8446014600201C
:10030C0043F0B64308BFA3F18053A3F50003BCFA36
:10031C008CF2083AA3EBC25310DB01FA02FC6344E3
:10032C0000FA02FCC2F12002BCF1004F20FA02F2EA
:10033C0043EB020008BF20F00100704702F12002DD
:10034C0001FA02FCC2F1200250EA4C0021FA02F23E
:10035C0043EB020008BF20EADC7070474FF0FF0C43
:10036C001CEAD0521EBF1CEAD15392EA0C0F93EA3E
:10037C000C0F6FD01A4480EA010C400218BF5FEAE0
:10038C0041211ED04FF0006343EA501043EA511153
:10039C00A0FB01310CF00040B1F5000F3EBF49004D
:1003AC0041EAD3715B0040EA010062F17F02FD2A51
:1003BC001DD8B3F1004F40EBC25008BF20F0010034
:1003CC00704790F0000F0CF0004C08BF49024CEA4B
:1003DC00502040EA51207F3AC2BFD2F1FF0340EADD
:1003EC00C250704740F400004FF00003013A5DDC4E
:1003FC0012F1190FDCBF00F000407047C2F100028F
:10040C00410021FA02F1C2F1200200FA02FC5FEA7B
:10041C00310040F1000053EA4C0308BF20EADC70C5
:10042C00704792F0000F00F0004C02BF400010F437
:10043C00000F013AF9D040EA0C0093F0000F01F0E4
:10044C00004C02BF490011F4000F013BF9D041EA06
:10045C000C018FE70CEAD15392EA0C0F18BF93EA08
:10046C000C0F0AD030F0004C18BF31F0004CD8D132
:10047C0080EA010000F00040704790F0000F17BFB9
:10048C0090F0004F084691F0000F91F0004F14D0FF
:10049C0092EA0C0F01D142020FD193EA0C0F03D157
:1004AC004B0218BF084608D180EA010000F000405A
:1004BC0040F0FE4040F40000704740F0FE4040F435
:1004CC00400070474FF0FF0C1CEAD0521EBF1CEAD4
:1004DC00D15392EA0C0F93EA0C0F69D0A2EB0302F2
:1004EC0080EA010C49024FEA402037D04FF080538C
:1004FC0043EA111143EA10130CF000408B4238BF51
:10050C005B0042F17D024FF4000C8B4224BF5B1A5E
:10051C0040EA0C00B3EB510F24BFA3EB510340EAAC
:10052C005C00B3EB910F24BFA3EB910340EA9C005A
:10053C00B3EBD10F24BFA3EBD10340EADC001B01CA
:10054C0018BF5FEA1C1CE0D1FD2A3FF650AF8B426E
:10055C0040EBC25008BF20F0010070470CF0004C7B
:10056C004CEA50207F32C2BFD2F1FF0340EAC250A6
:10057C00704740F400004FF00003013A37E792F067
:10058C00000F00F0004C02BF400010F4000F013AC5
:10059C00F9D040EA0C0093F0000F01F0004C02BFC0
:1005AC00490011F4000F013BF9D041EA0C0195E729
:1005BC000CEAD15392EA0C0F08D142027FF47DAFC2
:1005CC0093EA0C0F7FF470AF084676E793EA0C0FB2
:1005DC0004D14B023FF44CAF08466EE730F0004CB0
:1005EC0018BF31F0004CCAD130F000427FF45CAF40
:1005FC0031F000437FF43CAF5FE700BF42000ED206
:10060C00B2F1FE4F0BD34FF09E03B3EB126209D441
:10061C004FEA002343F0004323FA02F070474FF0F7
:10062C000000704712F1610F01D1420202D14FF06C
:10063C00FF3070474FF00000704700BF80B584B0AA
:10064C0000AF0346B9607A60FB73104B01221A703D
:10065C000E4AFB7B53700D4B00229A700B4B012200
:10066C00DA700A4ABB685360084A7B68936002F0F0
:10067C0001F80346054AD36001221021044802F018
:10068C0084FF00BF1037BD4680BD00BF280000208E
:10069C000008014080B582B000AF234B1B78002BC3
:1006AC003ED001F0E7FF78601F4BDB78002B13D0B6
:1006BC001D4BDB687A68D21A1B4B5B689A4230D3AD
:1006CC0000221021194802F060FF174B0022DA704B
:1006DC00154A7B68D36024E0134BDB687A68D21A26
:1006EC00114B9B689A421CD30F4B9B780133DAB2A7
:1006FC000D4B9A700C4B9A780B4B5B789A4203D348
:10070C00094B00221A700CE001221021074802F05C
:10071C003CFF054B0122DA70034A7B68D36000E092
:10072C0000BF0837BD4680BD2800002000080140EE
:10073C0080B483B000AF03463A60FB710B46BB71CB
:10074C000C4B01221A700B4ABB791371094A3B6896
:10075C009360084AFB799370064B0022DA70054BC4
:10076C000022DA60034B00221A6100BF0C37BD4631
:10077C0080BC70473800002080B500AF2E4B1B6842
:10078C0001332D4A13602C4B1B68142B02DD2A4BB2
:10079C0000221A60294B1B78002B4BD001F06AFF0A
:1007AC000346264AD2689B1A244A9268934241D344
:1007BC0001F060FF03461A46204BDA60002210213C
:1007CC001F4802F0E2FE01F055FF03461B4A126976
:1007DC009B1A952B2ED901F04DFF03461A46174B49
:1007EC001A61164BDA78154B9B789A421DD2134B33
:1007FC00DB780133DAB2114BDA70104B1B79002B1A
:10080C0009D00E4B9B68002B14D0012210210C48F0
:10081C0002F0BBFE0EE0094B9B68002B0AD00122B4
:10082C001021074802F0B1FE04E014220021034815
:10083C0005F060FD00BF80BD4C000020380000209A
:10084C000008014080B582B000AF391D4FF4C87369
:10085C000222B24804F07DFF0346002B40F0598180
:10086C003B79A12B40F055817B79803B162B00F214
:10087C004D8101A252F823F0E1080008190B000881
:10088C00190B0008190B0008190B0008190B0008AC
:10089C00190B0008190B0008190B0008190B00089C
:1008AC00190B0008190B0008190B0008190B00088C
:1008BC00190B0008190B0008010900087109000840
:1008CC00190B0008D5090008190A0008570A000876
:1008DC00950A00080A2200210220FFF729FF642351
:1008EC004B226421802000F00FFD01F09AFA01F0F8
:1008FC0029F90CE1052200210120FFF719FF01F075
:10090C0090FA01F01FF9864B0122DA700023322293
:10091C008021002001F080F9002332228021012067
:10092C0001F07AF9002332228021022001F074F9BF
:10093C00002332228021122001F06EF90023322292
:10094C008021132001F068F9002332228021142029
:10095C0001F062F901F0F6F801F09CFA704B0122FB
:10096C005A72D4E001F05DFA01F0ECF84B236422EA
:10097C008021002001F050F94B23642280210120BA
:10098C0001F04AF94B2364228021022001F044F942
:10099C004B2364228021122001F03EF94B23642268
:1009AC008021132001F038F94B236422802114207C
:1009BC0001F032F901F0C6F801F08EFA052200219F
:1009CC000120FFF7B5FEA2E001F02BFA01F0BAF816
:1009DC00534B0222DA70524B00229A7201220121EF
:1009EC00504802F0D2FD002280214F4802F0CDFD8C
:1009FC00002240214C4802F0C8FD494B01225A729A
:100A0C00052200210120FFF793FE80E001F009FA96
:100A1C0001F098F8424B0322DA7000220121414880
:100A2C0002F0B3FD002240213F4802F0AEFD01224E
:100A3C0080213D4802F0A9FD394B01225A72052252
:100A4C0000210120FFF774FE61E001F0EAF901F0EA
:100A5C0079F8334B0422DA7000220121314802F07C
:100A6C0094FD00228021304802F08FFD01224021AC
:100A7C002D4802F08AFD2A4B01225A7205220021D0
:100A8C000120FFF755FE42E001F0CBF901F05AF8D6
:100A9C0000220121234802F078FD00228021224807
:100AAC0002F073FD002240211F4802F06EFD4B2323
:100ABC0064228021002001F0AFF84B2364228021B6
:100ACC00012001F0A9F84B2364228021022001F0BF
:100ADC00A3F84B2364228021122001F09DF84B23B4
:100AEC0064228021132001F097F84B23642280218B
:100AFC00142001F091F801F025F8094B0022DA706E
:100B0C00052200210120FFF713FE00E000BF7B79D6
:100B1C0000E0002318460837BD4680BDE4010020E4
:100B2C002C020020000C01400008014080B500AFF1
:100B3C0001F048FD00F034F800F0A0FA00F080FA63
:100B4C0000F01AF900F08EF900F0DAF900F0C2F8B2
:100B5C0000F04CFA00F080F80D4803F0CBFA0821B5
:100B6C000C4803F071FB0C4803F0C4FA0B4803F07B
:100B7C0077FA00F03DFB00F01BFBFFF763FE00F083
:100B8C00B3FC00F0DDFD00F0CFFE00BFF5E700BFC9
:100B9C0080000020C8000020100100205801002017
:100BAC0080B594B000AF07F1280328220021184625
:100BBC0005F0A0FB07F1140300221A605A609A603A
:100BCC00DA601A613B1D00221A605A609A60DA6082
:100BDC000123BB624FF48033FB6200233B63012390
:100BEC00BB6302237B644FF48033BB644FF48013EC
:100BFC00FB6407F12803184602F01AFD0346002B8C
:100C0C0001D000F0EFFA0F237B610223BB610023BC
:100C1C00FB614FF480633B6200237B6207F114039A
:100C2C000221184602F086FF0346002B01D000F08B
:100C3C00D9FA02237B604FF40043FB603B1D18463E
:100C4C0003F008F90346002B01D000F0CBFA00BFEB
:100C5C005037BD4680BD000080B584B000AF3B1D51
:100C6C0000221A605A609A60184B194A1A60174B86
:100C7C0000229A60154B00221A73144B00221A752D
:100C8C00124B4FF46022DA61104B00225A600F4B6A
:100C9C0001221A610D4801F01BFD0346002B01D007
:100CAC0000F0A0FA00237B600123BB600623FB60ED
:100CBC003B1D1946054801F0E3FD0346002B01D00E
:100CCC0000F090FA00BF1037BD4680BD50000020E8
:100CDC000024014080B586B000AF07F10803002264
:100CEC001A605A609A60DA603B4600221A605A60B9
:100CFC001F4B204A1A601E4B41F61F425A601C4B78
:100D0C0000229A601A4B42F20F72DA60184B0022E2
:100D1C001A61174B00225A61154B00229A61144834
:100D2C0003F04EF90346002B01D000F05BFA4FF4B0
:100D3C008053BB6007F1080319460D4803F040FFD0
:100D4C000346002B01D000F04DFA00233B6000233A
:100D5C007B603B461946064804F0B0FB0346002B6B
:100D6C0001D000F03FFA00BF1837BD4680BD00BF70
:100D7C0080000020002C014080B58EB000AF07F140
:100D8C00280300221A605A609A60DA6007F1200387
:100D9C0000221A605A603B1D00221A605A609A6049
:100DAC00DA601A615A619A612D4B4FF080421A60D9
:100DBC002B4B47225A602A4B00229A60284B40F258
:100DCC00E732DA60264B00221A61254B00229A6129
:100DDC00234803F0F5F80346002B01D000F002FA8B
:100DEC004FF48053BB6207F1280319461C4803F0EB
:100DFC00E7FE0346002B01D000F0F4F9184803F08D
:100E0C00CBF90346002B01D000F0ECF900233B6238
:100E1C0000237B6207F120031946114804F04EFBB6
:100E2C000346002B01D000F0DDF960237B6000232A
:100E3C00BB600023FB6000237B613B1D082219462D
:100E4C00074803F0FBFD0346002B01D000F0CAF964
:100E5C00034801F06BF900BF3837BD4680BD00BFB9
:100E6C00C800002080B586B000AF07F1080300224F
:100E7C001A605A609A60DA603B4600221A605A6027
:100E8C001D4B1E4A1A601C4B41F61F425A601A4BEE
:100E9C0000229A60184BC722DA60174B00221A61A5
:100EAC00154B00229A61144803F08AF80346002B74
:100EBC0001D000F097F94FF48053BB6007F10803A1
:100ECC0019460D4803F07CFE0346002B01D000F0C0
:100EDC0089F900233B6000237B603B46194606489A
:100EEC0004F0ECFA0346002B01D000F07BF900BFB4
:100EFC001837BD4680BD00BF100100200004004023
:100F0C0080B58EB000AF07F1280300221A605A603A
:100F1C009A60DA6007F1200300221A605A603B1DC8
:100F2C0000221A605A609A60DA601A615A619A61FA
:100F3C002C4B2D4A1A602B4B00225A60294B002255
:100F4C009A60284B5922DA60264B00221A61254BF5
:100F5C0000229A61234803F033F80346002B01D09A
:100F6C0000F040F94FF48053BB6207F12803194697
:100F7C001C4803F025FE0346002B01D000F032F98B
:100F8C00184803F009F90346002B01D000F02AF9A8
:100F9C0000233B6200237B6207F1200319461148B2
:100FAC0004F08CFA0346002B01D000F01BF96023EF
:100FBC007B600023BB600023FB6000237B613B1D37
:100FCC0004221946074803F039FD0346002B01D0D3
:100FDC0000F008F9034801F0A9F800BF3837BD4606
:100FEC0080BD00BF580100200008004080B500AF54
:100FFC00114B124A1A60104B4FF416525A600E4B9A
:10100C0000229A600C4B0022DA600B4B00221A6112
:10101C00094B0C225A61084B00229A61064B0022A4
:10102C00DA61054804F0BAFA0346002B01D000F04F
:10103C00D9F800BF80BD00BFE4010020004400408F
:10104C0080B582B000AF0C4B5B690B4A43F00103D7
:10105C005361094B5B6903F001037B607B680022E1
:10106C0000210E2001F01DFE0E2001F036FE00BF07
:10107C000837BD4680BD00BF0010024080B588B067
:10108C0000AF07F1100300221A605A609A60DA6010
:10109C00424B9B69414A43F0100393613F4B9B6960
:1010AC0003F01003FB60FB683C4B9B693B4A43F02D
:1010BC0020039361394B9B6903F02003BB60BB6831
:1010CC00364B9B69354A43F004039361334B9B6960
:1010DC0003F004037B607B68304B9B692F4A43F021
:1010EC00080393612D4B9B6903F008033B603B683D
:1010FC0000224FF4C0412A4802F047FA00224FF474
:10110C009E61284802F041FA00220F21264802F085
:10111C003CFA4FF4C0433B6101237B610023BB616C
:10112C000223FB6107F1100319461D4802F092F8E7
:10113C004FF49E633B6101237B610023BB6102235F
:10114C00FB6107F110031946164802F083F80F23D0
:10115C003B6101237B610023BB610223FB6107F12F
:10116C0010031946104802F075F84FF400733B61F8
:10117C000E4B7B610023BB6107F1100319460A4833
:10118C0002F068F800220021172001F08AFD1720D8
:10119C0001F0A3FD00BF2037BD4680BD001002400A
:1011AC000010014000080140000C0140000031100B
:1011BC0080B400AF094BDB68084A43F08073D360FE
:1011CC00074B00225A60064B1B68054A43F001038B
:1011DC00136000BFBD4680BC704700BFF0ED00E05F
:1011EC00001000E080B400AF72B600BF00BFFDE796
:1011FC0080B582B000AF3E4B00221A703C4B0022EF
:10120C005A703B4B00229A70394B01229A72384B20
:10121C000122DA7201224FF40051364802F0B5F97E
:10122C0001224FF48041334802F0AFF90022102123
:10123C00314802F0AAF900220221304802F0A5F947
:10124C00002201212D4802F0A0F9002280212A4819
:10125C0002F09BF900224021274802F096F9002267
:10126C002021254802F091F9214B00229A71642328
:10127C004B226421802000F047F800F0D2FD00F0F2
:10128C0061FC4B2364228021002000F0C5FC4B2321
:10129C0064228021012000F0BFFC4B2364228021BA
:1012AC00022000F0B9FC4B2364228021122000F0B4
:1012BC00B3FC4B2364228021132000F0ADFC4B23A4
:1012CC0064228021142000F0A7FC00F03BFC0C4AA7
:1012DC003B4692E8030018600433197039466423C6
:1012EC000522084804F0AAF900BF0837BD4680BDA6
:1012FC002C0200200010014000080140000C0140AD
:10130C0070630008E401002090B585B000AF04467E
:10131C00084611461A462346FB710346BB710B4621
:10132C007B7113467B8000F07CFD00F00BFC7B880E
:10133C00184601F0A9F90A23BB810023FB812BE09D
:10134C00BA89FB89D31A142B0ADCBB89DAB2FB8964
:10135C00DBB2D31AD8B27B79BA79F97900F05CFC9C
:10136C00BA89FB891344142B0DDCFB89002B0AD0A2
:10137C00BB89DAB2FB89DBB21344D8B27B79BA7978
:10138C00F97900F049FC00F0DDFB7B88184601F090
:10139C007BF9FB890133FB81FA89BB899A42CFD94E
:1013AC0000BF00BF1437BD4690BD000080B500AF34
:1013BC0000F092FD00220221224802F0E6F8002201
:1013CC000121204802F0E1F8002280211E4802F0A1
:1013DC00DCF8002240211C4802F0D7F800F021FD77
:1013EC0000F0B0FB4B2364228021002000F014FCA1
:1013FC004B2364228021012000F00EFC4B2364223D
:10140C008021022000F008FC4B2364228021122052
:10141C0000F002FC4B2364228021132000F0FCFB23
:10142C004B2364228021142000F0F6FB00F08AFB91
:10143C0000F088FB00221021034802F0A6F800BF40
:10144C0080BD00BF000C01400008014080B500AF1A
:10145C00224BDB79002B3FD0204B1B78002B3BD150
:10146C0001F008F902461E4B1B68D31A1D4A136083
:10147C001C4B1B6840F2CE32934214D9174B1B798C
:10148C00002B10D1154BDB7A002B0CD1134B9B7816
:10149C00002B08D1114B01221A714FF4FA72002162
:1014AC000120FFF745F90F4B1B6840F69112934250
:1014BC0012D90A4B5B79002B0ED1084BDB7A012B2E
:1014CC000AD1064B01229A70044B01225A710A224E
:1014DC0000210320FFF72CF900BF80BD2C02002057
:1014EC00F0060020FC06002080B500AF8C4B1B786A
:1014FC00012B40F091808A4B9B79002B40F08C8023
:10150C00874B00221A70864B00229A72844B002261
:10151C00DA72844B00221A60834B00221A80804BB3
:10152C00DB785A1CD1B27E4AD170032B6CD801A245
:10153C0052F823F05115000867150008A51500088E
:10154C00DD150008052200210120FFF7F1F800F05D
:10155C00A1FC734B01225A725DE000F062FC00F0BA
:10156C00F1FA6F4B00229A72012201216F4802F0AE
:10157C000CF8002280216E4802F007F8002240216E
:10158C006B4802F002F8664B01225A7205220021C8
:10159C000120FFF7CDF83EE000F043FC00F0D2FA5A
:1015AC0000220121614801F0F0FF00224021604837
:1015BC0001F0EBFF012280215D4801F0E6FF584B62
:1015CC0001225A72052200210120FFF7B1F822E016
:1015DC0000F027FC00F0B6FA00220121534801F07C
:1015EC00D4FF00228021524801F0CFFF012240217C
:1015FC004F4801F0CAFF4A4B01225A7205220021C2
:10160C000120FFF795F806E0454B0122DA70444BB8
:10161C0001221A7000BF80E0414B5B78002B2AD06E
:10162C003F4BDB7A002B26D13D4B01229A723C4B6F
:10163C000122DA723A4B00225A70394B00221A708E
:10164C00374B00229A70364B0022DA70344B002252
:10165C009A71FFF7ABFE374B00221A60364B002213
:10166C001A70304B00221A602D4B00221A712C4B31
:10167C0000225A7151E02A4B9B78002B4DD0284BFD
:10168C00DB7A012B49D14FF4FA7000F0FDFF244BAB
:10169C0002229A70224B0022DA72214B01229A719B
:1016AC0001220221214801F070FF002201211F4874
:1016BC0001F06BFF002280211D4801F066FF002223
:1016CC0040211B4801F061FF4FF4487200210120BA
:1016DC00FFF72EF86423802200211020FFF714FE60
:1016EC0000F09FFB00F02EFA802300221021002036
:1016FC0000F092FA0B4B00221A600E4B00221A607B
:10170C000D4B00221A700D4B01221A70044B002253
:10171C001A71034B02225A71FFE700BF80BD00BF54
:10172C002C020020EC060020F8060020000C0140E2
:10173C0000080140F4060020000700203E020020B3
:10174C0080B500AF724B5B7C002B00F0DF80704BE0
:10175C009B79002B40F0DA806D4B00225A746C4B55
:10176C005B7B002B1ED06A4B0022DA72684B002286
:10177C005A73674BDB780133DAB2654BDA70644B22
:10178C00DB78042B08D9624B0422DA706422002126
:10179C000220FEF7CDFF5FE0052200210120FEF7BD
:1017AC00C7FF59E05A4B9B7B002B1BD0584B002298
:1017BC00DA72574B00229A73554BDB78022B0BD9FC
:1017CC00534BDB78013BDAB2514BDA700522002126
:1017DC000120FEF7ADFF3FE0642200210220FEF75E
:1017EC00A7FF39E04A4BDB7B002B00F08E80484B87
:1017FC00DB7A002B40F089804FF4FA720021012033
:10180C00FEF796FF424B01229A72414B0022DA738B
:10181C003F4B0122DA723E4B00225A703C4B0022A5
:10182C001A703B4B00229A70394B0022DA70384BFD
:10183C0000229A71FFF7BAFD364B00221A60364B24
:10184C0000221A70354B00221A60314B00221A719B
:10185C002F4B00225A7100BF2D4B01225A722C4B78
:10186C0000229A722A4BDB7A002B4FD1284BDB7863
:10187C00013B032B4AD801A252F823F09918000817
:10188C009F180008C7180008EF18000800F002FBAA
:10189C003CE000F0C6FA00F055F901220121204885
:1018AC0001F073FE002280211E4801F06EFE002222
:1018BC0040211C4801F069FE28E000F0B2FA00F06B
:1018CC0041F900220121164801F05FFE012280211E
:1018DC00144801F05AFE00224021124801F055FE36
:1018EC0014E000F09EFA00F02DF9002201210C48C2
:1018FC0001F04BFE002280210A4801F046FE012235
:10190C004021084801F041FE00E000BF80BD00BF4F
:10191C002C020020F406002000070020EC0600201A
:10192C00000C01400008014080B584B002AF754B3B
:10193C009B79012B48D1744B1A78744B1B789A42C3
:10194C0028D0714B1A78714B1A706F4B1B78132B74
:10195C0036D800237B6017E06B4B1B781A467B68EC
:10196C00934207DC7B68D8B280230022102100F060
:10197C0053F906E07B68D8B200230022002100F066
:10198C004BF97B6801337B607B68142BE4DD00F042
:10199C00D9F815E05C4B1B78132B11D90A23009353
:1019AC00322300220021802000F084F9554B1B7B50
:1019BC00012B05D1FA224FF4FA710120FEF73EFEFD
:1019CC00504B00221A7099E04E4B5B7A012B40F081
:1019DC0095804C4B9B79002B40F09080494BDB78E9
:1019EC00042B00F2888001A252F823F00D1A000893
:1019FC006B1A0008C11A0008D11A0008E11A000875
:101A0C00404B5B7A012B6DD13E4B9B7A012B69D1FC
:101A1C004B2364228021002000F0FEF84B2364222B
:101A2C008021012000F0F8F84B2364228021022051
:101A3C0000F0F2F84B2364228021122000F0ECF825
:101A4C004B2364228021132000F0E6F84B23642200
:101A5C008021142000F0E0F800F074F842E0294BEB
:101A6C009B7A002B40D1002332228021002000F0F1
:101A7C00D3F8002332228021012000F0CDF800237E
:101A8C0032228021022000F0C7F80023322280216C
:101A9C00122000F0C1F8002332228021132000F024
:101AAC00BBF8002332228021142000F0B5F800F09E
:101ABC0049F819E0134B9B7A002B17D1072000F043
:101ACC00C8F913E00F4B9B7A002B11D10E2000F0BC
:101ADC00C0F90DE00B4B9B7A002B0BD1152000F0BD
:101AEC00B8F907E000BF06E000BF04E000BF02E069
:101AFC0000BF00E000BF034B00225A7200BF083742
:101B0C00BD4680BD2C020020000700203E020020B4
:101B1C0080B582B000AF78607B681B68064A934240
:101B2C0006D10421054802F0D3FD054B01221A70A1
:101B3C0000BF0837BD4680BD00080040580100209A
:101B4C00E806002080B586B000AF00237B6100233F
:101B5C003B6131E02C4A3B699B0013445B781A04CF
:101B6C0029493B699B000B449B781B021A4326496D
:101B7C003B699B000B44DB7813437B601723FB60B2
:101B8C0014E00122FB6802FA03F31A467B68134047
:101B9C00002B01D0282100E014217B695A1C7A61AA
:101BAC001A4A22F81310FB68013BFB60FB68002B00
:101BBC00E7DA3B6901333B613B69142BCADD002337
:101BCC00BB6009E07B695A1C7A61104A002122F83B
:101BDC001310BB680133BB60BB68312BF2DD0C4BBF
:101BEC0000221A707B699BB2084A0421094802F052
:101BFC00CDFB00BF064B1B78002BFBD000BF00BFFA
:101C0C001837BD4680BD00BF400200209402002062
:101C1C00E80600205801002090B482B000AF0446C2
:101C2C00084611461A462346FB710346BB710B4608
:101C3C007B7113463B71FB79142B16D8FB790D493C
:101C4C00FA7901F82320FB790A4A9B0013447A792C
:101C5C005A70FB79074A9B001344BA799A70FB7946
:101C6C00044A9B0013443A79DA7000BF0837BD462A
:101C7C0090BC70474002002080B584B000AF034692
:101C8C00FB710B46BB7113467B710023FB6009E0B3
:101C9C00FB68D8B27B79BA79F979FFF7BDFFFB689D
:101CAC000133FB60FB68142BF2DD00BF00BF103763
:101CBC00BD4680BDB0B586B000AF0446084611469F
:101CCC001A462346FB710346BB710B467B711346C8
:101CDC003B7100237B614AE07869FEF7EBFA04461E
:101CEC003B791846FEF7E6FA034619462046FEF7FE
:101CFC00E9FB0346BB60FB791846FEF7DBFA0346AB
:101D0C00B9681846FEF72AFB03461846FEF776FC20
:101D1C000346DCB2BB791846FEF7CCFA0346B96829
:101D2C001846FEF71BFB03461846FEF767FC0346F6
:101D3C00DDB27B791846FEF7BDFA0346B968184642
:101D4C00FEF70CFB03461846FEF758FC0346DBB2C5
:101D5C001A4629462046FFF78FFFFFF7F3FE97F848
:101D6C002830184600F090FC7B6901337B613B798D
:101D7C007A699A42B0DD3B793B614AE03869FEF7FB
:101D8C0099FA04463B791846FEF794FA034619462D
:101D9C002046FEF797FB0346FB60FB791846FEF7DF
:101DAC0089FA0346F9681846FEF7D8FA034618462E
:101DBC00FEF724FC0346DCB2BB791846FEF77AFA30
:101DCC000346F9681846FEF7C9FA03461846FEF7AB
:101DDC0015FC0346DDB27B791846FEF76BFA034619
:101DEC00F9681846FEF7BAFA03461846FEF706FCE1
:101DFC000346DBB21A4629462046FFF73DFFFFF7A4
:101E0C00A1FE97F82830184600F03EFC3B69013BD8
:101E1C003B613B69002BB1DA00BF00BF1837BD46F0
:101E2C00B0BD80B582B000AF00237B6009E07B6859
:101E3C00D8B2002300220021FFF7EEFE7B680133AD
:101E4C007B607B68142BF2DD00BF00BF0837BD46FA
:101E5C0080BD80B584B000AF0346FB710023FB60EE
:101E6C000EE0FB68D8B24B2364228021FFF7D4FE2E
:101E7C00FFF768FE232000F007FCFB680133FB60D2
:101E8C00FB79FA689A42ECDBFFF75CFE00BF103777
:101E9C00BD4680BD80B582B000AF0D4B1B887B600A
:101EAC0009E00C4B1B687A68DA63012000F0ECFB4C
:101EBC007B6809337B607B68B3F57A7FF1DB044B7D
:101ECC0040F2E7321A8000BF0837BD4680BD00BF24
:101EDC00EA060020C800002080B582B000AF0C4B91
:101EEC001B887B6009E00B4B1B687A68DA63012066
:101EFC0000F0CAFB7B68093B7B607B68002BF2DA45
:101F0C00034B00221A8000BF0837BD4680BD00BFBE
:101F1C00EA060020C800002080B485B000AF154B45
:101F2C009B69144A43F001039361124B9B6903F0C4
:101F3C000103BB60BB680F4BDB690E4A43F0805357
:101F4C00D3610C4BDB6903F080537B607B680A4BDD
:101F5C005B68FB60FB6823F0E063FB60FB6843F0AD
:101F6C000073FB60044AFB68536000BF1437BD4626
:101F7C0080BC7047001002400000014080B588B062
:101F8C0000AF786007F1100300221A605A609A6063
:101F9C00DA607B681B68144A934221D1134B9B690E
:101FAC00124A43F400739361104B9B6903F4007362
:101FBC00FB60FB680D4B9B690C4A43F00403936177
:101FCC000A4B9B6903F00403BB60BB6801233B61B4
:101FDC0003237B6107F110031946054801F03AF918
:101FEC0000BF2037BD4680BD0024014000100240D8
:101FFC000008014080B586B000AF78607B681B6834
:10200C00444A934214D1444B9B69434A43F40063C2
:10201C009361414B9B6903F400637B617B690022F4
:10202C000021192000F03DFE192000F056FE6CE056
:10203C007B681B68B3F1804F14D1374BDB69364A90
:10204C0043F00103D361344BDB6903F001033B61C3
:10205C003B69002200211C2000F023FE1C2000F014
:10206C003CFE52E07B681B682C4A934214D12A4BED
:10207C00DB69294A43F00203D361274BDB6903F088
:10208C000203FB60FB68002200211D2000F009FE0A
:10209C001D2000F022FE38E07B681B68204A93422A
:1020AC0033D11D4BDB691C4A43F00403D3611A4B3B
:1020BC00DB6903F00403BB60BB681A4B1A4A1A6055
:1020CC00184B10225A60174B00229A60154B802235
:1020DC00DA60144B4FF480721A61124B4FF4806229
:1020EC005A61104B00229A610E4B0022DA610D48A6
:1020FC0000F00EFE0346002B01D0FFF773F87B684F
:10210C00084A9A62074A7B68536200BF1837BD467B
:10211C0080BD00BF002C01400010024000040040B4
:10212C0000080040A00100204400024080B58AB0A5
:10213C0000AF786007F1140300221A605A609A60AD
:10214C00DA607B681B68B3F1804F2BD1264B9B69FF
:10215C00254A43F008039361234B9B6903F0080362
:10216C003B613B694FF480637B610223BB610223BB
:10217C003B6207F1140319461C4801F06BF81C4B29
:10218C005B687B627B6A23F440737B627B6A43F0FF
:10219C00E0637B627B6A43F400737B62144A7B6A64
:1021AC0053601CE07B681B68124A934217D10E4B9C
:1021BC009B690D4A43F0080393610B4B9B6903F039
:1021CC000803FB60FB6880237B610223BB61022355
:1021DC003B6207F114031946044801F03BF800BFB9
:1021EC002837BD4680BD00BF00100240000C0140E6
:1021FC00000001400008004080B588B000AF786056
:10220C0007F1100300221A605A609A60DA607B684A
:10221C001B681F4A934237D11E4BDB691D4A43F49E
:10222C000033D3611B4BDB6903F40033FB60FB68A9
:10223C00184B9B69174A43F004039361154B9B6938
:10224C0003F00403BB60BB6804233B6102237B6186
:10225C000323FB6107F1100319460F4800F0FAFF46
:10226C0008233B6100237B610023BB6107F1100352
:10227C001946094800F0EEFF00220021262000F04C
:10228C0010FD262000F029FD00BF2037BD4680BD83
:10229C0000440040001002400008014080B400AF30
:1022AC0000BFFDE780B400AF00BFFDE780B400AF16
:1022BC0000BFFDE780B400AF00BFFDE780B400AF06
:1022CC0000BFFDE780B400AF00BFBD4680BC7047C7
:1022DC0080B400AF00BFBD4680BC704780B400AF77
:1022EC0000BFBD4680BC704780B500AF00F0B0F9B0
:1022FC0000BF80BD80B500AF024800F077FE00BF84
:10230C0080BD00BFA001002080B500AF4FF400706D
:10231C0001F06CF94FF40071264801F01FF90346E7
:10232C00002B08D1244B0122DA7100F0A3F90346EB
:10233C00224A13603CE0204BDB79002B38D000F0B4
:10234C0099F902461D4B1B68D31A1D4A13601A4B90
:10235C000022DA711A4B1B68B3F57A7F0BD3164B3C
:10236C009B78002B07D1144BDB7A002B03D1124B3B
:10237C0001225A700AE0124B1B680E2B06D90E4B29
:10238C009B78002B02D10C4B01221A700B4B0022B4
:10239C001A600B4B00221A600A4B00221A60064B83
:1023AC0000225A71044B00221A71034B00229A70BE
:1023BC0000BF80BD000C01402C020020F006002064
:1023CC00EC060020FC06002080B582B000AF4A4825
:1023DC0002F044FA0421494801F0EFF8484B9B798C
:1023EC00012B5BD1474B1B680133464A1360454BAD
:1023FC001A68454BA3FB0213D21A520813445B090B
:10240C00DAB2424B1A703F4B1B68B3F5617F09D9A6
:10241C0000220221394801F0B8F8012240213C4841
:10242C0001F0B3F8374B1B6840F2A642934208D92F
:10243C00344B1B6840F2AB42934202D8304B012222
:10244C001A73304B1B6840F2AC42934207D90122FD
:10245C0010212F4801F099F8294B00221A73294BAF
:10246C001B68B3F5966F29D900224021284801F04A
:10247C008CF8244B00221A60244B00221A70204B3B
:10248C0000229A711E4B00221A7300221021204840
:10249C0001F07BF81A4B0122DA720FE01D4B1B88FE
:1024AC0001339AB21B4B1A801A4B1B88032B05D98C
:1024BC00134B01225A72174B00221A80164B1B78B1
:1024CC000133DAB2144B1A70134B1B78022B0FD951
:1024DC00124A3B4692E803001860043319703946DF
:1024EC00642305220E4803F0A9F80B4B00221A7046
:1024FC0000BF0837BD4680BD80000020000C0140A5
:10250C002C020020F4060020DD47701F000700207D
:10251C0000080140F806002001070020786300083D
:10252C00E401002080B500AF024802F097F900BF2B
:10253C0080BD00BFC800002080B500AF054802F088
:10254C008DF9FEF719F9FEF781FFFEF7A3F800BF2E
:10255C0080BD00BF1001002080B500AF024803F021
:10256C008FF900BF80BD00BFE401002080B400AF34
:10257C0000BFBD4680BC7047FFF7F8FF0B480C4905
:10258C000C4A002302E0D458C4500433C4188C42C3
:10259C00F9D3094A094C002301E013600432A2422A
:1025AC00FBD303F0AFFEFEF7C1FA7047000000202A
:1025BC000C000020B46300080C0000200807002069
:1025CC00FEE7000080B500AF084B1B68074A43F0DC
:1025DC0010031360032000F059FB0F2000F008F8E3
:1025EC00FFF79AFC0023184680BD00BF0020024074
:1025FC0080B582B000AF7860124B1A68124B1B7812
:10260C0019464FF47A73B3FBF1F3B2FBF3F31846AC
:10261C0000F071FB0346002B01D001230EE07B6818
:10262C000F2B0AD8002279684FF0FF3000F039FBED
:10263C00064A7B681360002300E001231846083724
:10264C00BD4680BD000000200800002004000020D2
:10265C0080B400AF054B1B781A46054B1B6813441E
:10266C00034A136000BFBD4680BC704708000020C1
:10267C000407002080B400AF024B1B681846BD460F
:10268C0080BC70470407002080B584B000AF786030
:10269C00FFF7F0FFB8607B68FB60FB68B3F1FF3FAE
:1026AC0005D00A4B1B781A46FB681344FB6000BF2D
:1026BC00FFF7E0FF0246BB68D31AFA689A42F7D8D4
:1026CC0000BF00BF1037BD4680BD00BF0800002012
:1026DC0080B586B000AF78600023FB7500233B61AA
:1026EC000023BB600023FB607B68002B01D101231E
:1026FC00BEE07B689B68002B7B689B6A002B09D132
:10270C007B680022DA627B68002283F824207868D8
:10271C00FFF734FC786800F0ABF90346FB757B6877
:10272C009B6A03F01003002B40F09980FB7D002B7B
:10273C0040F095807B689B6A23F4885323F0020356
:10274C0043F002027B689A627B685A687B68DB699B
:10275C001A437B681B7B5B001343BA681343BB6053
:10276C007B689B68B3F5807F03D07B689B68012BEB
:10277C0002D14FF4807300E000233A6913433B61AC
:10278C007B681B7D012B19D17B681B7B002B09D12E
:10279C007B689B69013B5A033B69134343F4006319
:1027AC003B610BE07B689B6A43F020027B689A627A
:1027BC007B68DB6A43F001027B68DA627B681B682A
:1027CC005B6823F469417B681B683A690A435A6069
:1027DC007B681B689A68284B13407A681268B96842
:1027EC000B4393607B689B68B3F5807F03D07B6859
:1027FC009B68012B04D17B681B69013B1B05FB60AB
:10280C007B681B68DB6A23F470017B681B68FA68C1
:10281C000A43DA627B681B689A68184B1340BA68E3
:10282C009A420BD17B680022DA627B689B6A23F0A8
:10283C00030343F001027B689A6218E07B689B6A91
:10284C0023F0120343F010027B689A627B68DB6A08
:10285C0043F001027B68DA620123FB7507E07B68B9
:10286C009B6A43F010027B689A620123FB75FB7D27
:10287C0018461837BD4680BDFDF7E1FFFE0E1FFF61
:10288C0080B485B000AF786039600023FB730023FF
:10289C00BB607B6893F82430012B01D10223DCE070
:1028AC007B68012283F824203B685B68062B1CD8CC
:1028BC007B681B68596B3B685A6813469B00134432
:1028CC00053B1F2202FA03F3DB4319403B681868EF
:1028DC003B685A6813469B001344053B00FA03F20D
:1028EC007B681B680A435A633CE03B685B680C2BB3
:1028FC001CD87B681B68196B3B685A6813469B0095
:10290C001344233B1F2202FA03F3DB4319403B68B9
:10291C0018683B685A6813469B001344233B00FA23
:10292C0003F27B681B680A431A631BE07B681B6815
:10293C00D96A3B685A6813469B001344413B1F22DB
:10294C0002FA03F3DB4319403B6818683B685A688A
:10295C0013469B001344413B00FA03F27B681B684F
:10296C000A43DA623B681B68092B1CD97B681B681D
:10297C00D9683B681A6813465B0013441E3B072258
:10298C0002FA03F3DB4319403B6898683B681A680A
:10299C0013465B0013441E3B00FA03F27B681B6872
:1029AC000A43DA6019E07B681B6819693B681A688E
:1029BC0013465B001344072202FA03F3DB4319406E
:1029CC003B6898683B681A6813465B00134400FA2E
:1029DC0003F27B681B680A431A613B681B68102B67
:1029EC0003D03B681B68112B32D17B681B681D4AD6
:1029FC00934225D17B681B689B6803F40003002B72
:102A0C0026D17B681B689A687B681B6842F40002BD
:102A1C009A603B681B68102B1AD1134B1B68134A26
:102A2C00A2FB03239A0C13469B0013445B00BB6070
:102A3C0002E0BB68013BBB60BB68002BF9D107E02F
:102A4C007B689B6A43F020027B689A620123FB73CC
:102A5C007B68002283F82420FB7B18461437BD4684
:102A6C0080BC7047002401400000002083DE1B4323
:102A7C0080B584B000AF78600023FB607B681B6876
:102A8C009B6803F00103012B2ED17B681B689A68AD
:102A9C007B681B6822F001029A60FFF7EBFDF8607F
:102AAC001BE0FFF7E7FD0246FB68D31A022B14D993
:102ABC007B681B689B6803F00103012B0DD17B68BD
:102ACC009B6A43F010027B689A627B68DB6A43F076
:102ADC0001027B68DA62012307E07B681B689B6854
:102AEC0003F00103012BDCD0002318461037BD4640
:102AFC0080BD000080B485B000AF78607B6803F0C7
:102B0C000703FB600C4BDB68BB60BA684FF6FF0336
:102B1C001340BB60FB681A02BB68134343F0BF63EE
:102B2C0043F40033BB60044ABB68D36000BF143766
:102B3C00BD4680BC704700BF00ED00E080B400AF24
:102B4C00044BDB681B0A03F007031846BD4680BC28
:102B5C00704700BF00ED00E080B483B000AF0346C7
:102B6C00FB7197F90730002B0BDBFB7903F01F028D
:102B7C00064997F907305B09012000FA02F241F887
:102B8C00232000BF0C37BD4680BC704700E100E03D
:102B9C0080B483B000AF03463960FB7197F90730FE
:102BAC00002B0ADB3B68DAB20C4997F907301201AB
:102BBC00D2B20B4483F800230AE03B68DAB208492E
:102BCC00FB7903F00F03043B1201D2B20B441A76CB
:102BDC0000BF0C37BD4680BC704700BF00E100E071
:102BEC0000ED00E080B489B000AFF860B9607A60A5
:102BFC00FB6803F00703FB61FB69C3F10703042BBC
:102C0C0028BF0423BB61FB690433062B02D9FB6983
:102C1C00033B00E000237B614FF0FF32BB6902FAFB
:102C2C0003F3DA43BB681A407B699A404FF0FF31DB
:102C3C007B6901FA03F3D9437B680B4013431846B5
:102C4C002437BD4680BC704780B582B000AF786039
:102C5C007B68013BB3F1807F01D301230FE00A4A6B
:102C6C007B68013B53600F214FF0FF30FFF790FF63
:102C7C00054B00229A60044B07221A600023184669
:102C8C000837BD4680BD00BF10E000E080B582B0C3
:102C9C0000AF78607868FFF72DFF00BF0837BD469E
:102CAC0080BD80B586B000AF0346B9607A60FB7317
:102CBC0000237B61FFF742FF78617A68B968786915
:102CCC00FFF790FF024697F90F3011461846FFF7B1
:102CDC005FFF00BF1837BD4680BD80B582B000AF26
:102CEC000346FB7197F907301846FFF735FF00BF15
:102CFC000837BD4680BD80B582B000AF786078687B
:102D0C00FFF7A2FF034618460837BD4680BD0000FA
:102D1C0080B485B000AF78600023FB607B68002B2B
:102D2C0001D1012343E07B681B681A46224B1344F4
:102D3C00224AA2FB03231B099A007B681A647B6856
:102D4C001F4ADA637B68022283F821207B681B68A8
:102D5C001B68FB60FB6823F47F5323F03003FB609C
:102D6C007B685A687B689B681A437B68DB681A43EC
:102D7C007B681B691A437B685B691A437B689B6998
:102D8C001A437B68DB691343FA681343FB607B6867
:102D9C001B68FA681A607B6800229A637B680122C0
:102DAC0083F821207B68002283F82020002318461A
:102DBC001437BD4680BC7047F8FFFDBFCDCCCCCCE2
:102DCC000000024080B586B000AFF860B9607A6050
:102DDC003B600023FB75FB6893F82030012B01D17D
:102DEC0002234BE0FB68012283F82020FB6893F858
:102DFC002130DBB2012B3AD1FB68022283F821206F
:102E0C00FB6800229A63FB681B681A68FB681B68E6
:102E1C0022F001021A603B687A68B968F86800F021
:102E2C00EBF9FB68DB6A002B08D0FB681B681A689F
:102E3C00FB681B6842F00E021A600FE0FB681B680F
:102E4C001A68FB681B6822F004021A60FB681B6896
:102E5C001A68FB681B6842F00A021A60FB681B6860
:102E6C001A68FB681B6842F001021A6005E0FB68F7
:102E7C00002283F820200223FB75FB7D18461837AF
:102E8C00BD4680BD80B485B000AF78600023FB7375
:102E9C007B6893F82130DBB2022B08D07B680422CC
:102EAC009A637B68002283F82020012320E07B6852
:102EBC001B681A687B681B6822F00E021A607B681C
:102ECC001B681A687B681B6822F001021A607B6819
:102EDC001A6C7B68DB6B012101FA02F25A607B6889
:102EEC00012283F821207B68002283F82020FB7BC1
:102EFC0018461437BD4680BC7047000080B584B0BE
:102F0C0000AF78600023FB737B6893F82130DBB251
:102F1C00022B05D07B6804229A630123FB7351E0DA
:102F2C007B681B681A687B681B6822F00E021A60AB
:102F3C007B681B681A687B681B6822F001021A60A8
:102F4C007B681B68224A934229D07B681B68214A04
:102F5C00934222D07B681B681F4A93421AD07B682D
:102F6C001B681E4A934212D07B681B681C4A934212
:102F7C000AD07B681B681B4A934202D14FF4801322
:102F8C000EE04FF080730BE04FF4803308E04FF409
:102F9C00805305E04FF4807302E0102300E001231E
:102FAC00114A53607B68012283F821207B68002240
:102FBC0083F820207B685B6B002B03D07B685B6BFA
:102FCC0078689847FB7B18461037BD4680BD00BF1C
:102FDC00080002401C000240300002404400024045
:102FEC00580002406C0002400000024080B584B0E2
:102FFC0000AF78607B68DB6B1B68FB607B681B68D1
:10300C001B68BB607B681B6C04229A40FB681340F6
:10301C00002B4FD0BB6803F00403002B4AD07B6815
:10302C001B681B6803F02003002B07D17B681B680F
:10303C001A687B681B6822F004021A607B681B68A4
:10304C00664A934229D07B681B68654A934222D01A
:10305C007B681B68634A93421AD07B681B68624A80
:10306C00934212D07B681B68604A93420AD07B68FB
:10307C001B685F4A934202D14FF480030EE04FF07D
:10308C0080630BE04FF4802308E04FF4804305E0AD
:10309C004FF4806302E0402300E00423554A536060
:1030AC007B68DB6A002B00F094807B68DB6A7868B5
:1030BC0098478EE07B681B6C02229A40FB68134099
:1030CC00002B56D0BB6803F00203002B51D07B6859
:1030DC001B681B6803F02003002B0BD17B681B685B
:1030EC001A687B681B6822F00A021A607B6801224E
:1030FC0083F821207B681B68384A934229D07B686F
:10310C001B68374A934222D07B681B68354A93422E
:10311C001AD07B681B68344A934212D07B681B68B8
:10312C00324A93420AD07B681B68314A934202D1DF
:10313C004FF400130EE04FF000730BE04FF400332C
:10314C0008E04FF4005305E04FF4007302E0202335
:10315C0000E00223274A53607B68002283F820207A
:10316C007B689B6A002B34D07B689B6A7868984795
:10317C002FE07B681B6C08229A40FB681340002BE5
:10318C0028D0BB6803F00803002B23D07B681B6896
:10319C001A687B681B6822F00E021A607B681A6C36
:1031AC007B68DB6B012101FA02F25A607B68012219
:1031BC009A637B68012283F821207B68002283F8C4
:1031CC0020207B681B6B002B04D07B681B6B786802
:1031DC00984700BF00BF1037BD4680BD08000240B5
:1031EC001C000240300002404400024058000240E3
:1031FC006C0002400000024080B485B000AFF86063
:10320C00B9607A603B60FB681A6CFB68DB6B012170
:10321C0001FA02F25A60FB681B683A685A60FB6854
:10322C005B68102B08D1FB681B687A689A60FB6896
:10323C001B68BA68DA6007E0FB681B68BA689A60BA
:10324C00FB681B687A68DA6000BF1437BD4680BC27
:10325C007047000080B48BB000AF786039600023F9
:10326C007B6200233B6269E101227B6A02FA03F371
:10327C00FB613B681B68FA691340BB61BA69FB6967
:10328C009A4240F058813B685B689A4A93425ED000
:10329C00984A934275D8984A934258D0964A93428A
:1032AC006FD8964A934252D0944A934269D8944A22
:1032BC0093424CD0924A934263D8924A934246D05E
:1032CC00904A93425DD8122B2AD8122B59D801A2BE
:1032DC0052F823F05B3300083533000847330008FD
:1032EC00893300088F3300088F3300088F330008B0
:1032FC008F3300088F3300088F3300088F3300089A
:10330C008F3300088F3300088F3300088F33000889
:10331C008F3300088F3300083D3300085133000809
:10332C00794A934213D02CE03B68DB683B6229E07E
:10333C003B68DB6804333B6224E03B68DB680833A2
:10334C003B621FE03B68DB680C333B621AE03B6876
:10335C009B68002B02D104233B6213E03B689B6803
:10336C00012B05D108233B627B68FA691A6109E0DD
:10337C0008233B627B68FA695A6103E000233B62D5
:10338C0000E000BFBB69FF2B01D87B6801E07B68C4
:10339C0004337B61BB69FF2B02D87B6A9B0002E084
:1033AC007B6A083B9B003B617B691A680F213B6978
:1033BC0001FA03F3DB431A40396A3B6901FA03F360
:1033CC001A437B691A603B685B6803F08053002BDF
:1033DC0000F0B1804D4B9B694C4A43F00103936163
:1033EC004A4B9B6903F00103BB60BB68484A7B6A8C
:1033FC009B08023352F82330FB607B6A03F0030313
:10340C009B000F2202FA03F3DB43FA681340FB60C4
:10341C007B68404A934213D07B683F4A93420DD05D
:10342C007B683E4A934207D07B683D4A934201D168
:10343C00032306E0042304E0022302E0012300E05E
:10344C0000237A6A02F0030292009340FA68134355
:10345C00FB602F497B6A9B080233FA6841F82320F2
:10346C003B685B6803F48013002B06D02D4B9A68E5
:10347C002C49BB6913438B6006E02A4B9A68BB69E5
:10348C00DB43284913408B603B685B6803F40013F3
:10349C00002B06D0234BDA682249BB691343CB605F
:1034AC0006E0204BDA68BB69DB431E491340CB6056
:1034BC003B685B6803F40033002B06D0194B5A6849
:1034CC001849BB6913434B6006E0164B5A68BB693D
:1034DC00DB43144913404B603B685B6803F4803357
:1034EC00002B21D00F4B1A680E49BB6913430B609C
:1034FC0021E000BF0000321000003110000022104B
:10350C0000002110000012100000111000100240E9
:10351C000000014000080140000C01400010014077
:10352C0000140140000401400B4B1A68BB69DB43DB
:10353C00094913400B607B6A01337B623B681A6854
:10354C007B6A22FA03F3002B7FF48EAE00BF00BF20
:10355C002C37BD4680BC70470004014080B485B058
:10356C0000AF78600B467B807B689A687B88134041
:10357C00002B02D00123FB7301E00023FB73FB7BC8
:10358C0018461437BD4680BC704780B483B000AF7A
:10359C0078600B467B8013467B707B78002B03D0C6
:1035AC007A887B681A6103E07B881A047B681A614D
:1035BC0000BF0C37BD4680BC704780B485B000AFEF
:1035CC0078600B467B807B68DB68FB607A88FB68E5
:1035DC0013401A04FB68D9437B880B401A437B6861
:1035EC001A6100BF1437BD4680BC704780B582B0ED
:1035FC0000AF0346FB80084B5A69FB881340002B35
:10360C0006D0054AFB885361FB88184600F006F883
:10361C0000BF0837BD4680BD0004014080B483B0B4
:10362C0000AF0346FB8000BF0C37BD4680BC704723
:10363C0080B586B000AF78607B68002B01D1012388
:10364C0072E27B681B6803F00103002B00F087809B
:10365C00924B5B6803F00C03042B0CD08F4B5B6814
:10366C0003F00C03082B12D18C4B5B6803F48033F2
:10367C00B3F5803F0BD1894B1B6803F40033002B4F
:10368C006CD07B685B68002B68D101234CE27B68B3
:10369C005B68B3F5803F06D1804B1B687F4A43F4CF
:1036AC00803313602EE07B685B68002B0CD17B4B66
:1036BC001B687A4A23F480331360784B1B68774A73
:1036CC0023F4802313601DE07B685B68B3F5A02FA7
:1036DC000CD1724B1B68714A43F4802313606F4BFF
:1036EC001B686E4A43F4803313600BE06B4B1B6812
:1036FC006A4A23F480331360684B1B68674A23F4CF
:10370C00802313607B685B68002B13D0FEF7B2FF3D
:10371C00386108E0FEF7AEFF02463B69D31A642B12
:10372C0001D9032300E25D4B1B6803F40033002B2B
:10373C00F0D014E0FEF79EFF386108E0FEF79AFF28
:10374C0002463B69D31A642B01D90323ECE1534B9A
:10375C001B6803F40033002BF0D100E000BF7B6842
:10376C001B6803F00203002B63D04C4B5B6803F027
:10377C000C03002B0BD0494B5B6803F00C03082B9C
:10378C001CD1464B5B6803F48033002B16D1434BA2
:10379C001B6803F00203002B05D07B681B69012B0F
:1037AC0001D00123C0E13D4B1B6823F0F8027B687C
:1037BC005B69DB00394913430B603AE07B681B699A
:1037CC00002B20D0364B01221A60FEF753FF3861D4
:1037DC0008E0FEF74FFF02463B69D31A022B01D9D2
:1037EC000323A1E12D4B1B6803F00203002BF0D047
:1037FC002A4B1B6823F0F8027B685B69DB002749C6
:10380C0013430B6015E0264B00221A60FEF732FFC3
:10381C00386108E0FEF72EFF02463B69D31A022BF3
:10382C0001D9032380E11D4B1B6803F00203002B1D
:10383C00F0D17B681B6803F00803002B3AD07B683F
:10384C009B69002B19D0174B01221A60FEF712FF4F
:10385C00386108E0FEF70EFF02463B69D31A022BD3
:10386C0001D9032360E10D4B5B6A03F00203002BCB
:10387C00F0D0012000F0D0FA1CE00A4B00221A60B4
:10388C00FEF7F8FE38610FE0FEF7F4FE02463B69E6
:10389C00D31A022B08D9032346E100BF00100240C3
:1038AC000000424280044242924B5B6A03F00203E6
:1038BC00002BE9D17B681B6803F00403002B00F09C
:1038CC00A6800023FB758B4BDB6903F08053002B28
:1038DC000DD1884BDB69874A43F08053D361854B0C
:1038EC00DB6903F08053BB60BB680123FB75824B23
:1038FC001B6803F48073002B18D17F4B1B687E4A26
:10390C0043F480731360FEF7B5FE386108E0FEF7F0
:10391C00B1FE02463B69D31A642B01D9032303E1A0
:10392C00754B1B6803F48073002BF0D07B68DB684D
:10393C00012B06D16F4B1B6A6E4A43F001031362D5
:10394C002DE07B68DB68002B0CD16A4B1B6A694A43
:10395C0023F001031362674B1B6A664A23F00403CE
:10396C0013621CE07B68DB68052B0CD1614B1B6A76
:10397C00604A43F0040313625E4B1B6A5D4A43F0DA
:10398C00010313620BE05B4B1B6A5A4A23F00103E1
:10399C001362584B1B6A574A23F0040313627B686B
:1039AC00DB68002B15D0FEF765FE38610AE0FEF7E8
:1039BC0061FE02463B69D31A41F28832934201D927
:1039CC000323B1E04B4B1B6A03F00203002BEED038
:1039DC0014E0FEF74FFE38610AE0FEF74BFE02469C
:1039EC003B69D31A41F28832934201D903239BE0FD
:1039FC00404B1B6A03F00203002BEED1FB7D012B25
:103A0C0005D13C4BDB693B4A23F08053D3617B6887
:103A1C00DB69002B00F08780364B5B6803F00C03EE
:103A2C00082B61D07B68DB69022B46D1334B00221B
:103A3C001A60FEF71FFE386108E0FEF71BFE024617
:103A4C003B69D31A022B01D903236DE0294B1B6868
:103A5C0003F00073002BF0D17B681B6AB3F5803F39
:103A6C0008D1244B5B6823F400327B689B682149A6
:103A7C0013434B601F4B5B6823F474127B68196A09
:103A8C007B685B6A0B431B4913434B601B4B012246
:103A9C001A60FEF7EFFD386108E0FEF7EBFD024619
:103AAC003B69D31A022B01D903233DE0114B1B6850
:103ABC0003F00073002BF0D035E0104B00221A609D
:103ACC00FEF7D8FD386108E0FEF7D4FD02463B69ED
:103ADC00D31A022B01D9032326E0064B1B6803F0F3
:103AEC000073002BF0D11EE07B68DB69012B07D142
:103AFC00012319E0001002400070004060004242B7
:103B0C000B4B5B68FB60FB6803F480327B681B6AC1
:103B1C009A4206D1FB6803F470127B685B6A9A4286
:103B2C0001D0012300E0002318461837BD4680BDA4
:103B3C000010024080B584B000AF786039607B68BB
:103B4C00002B01D10123D0E06A4B1B6803F0070363
:103B5C003A689A4210D9674B1B6823F007026549F3
:103B6C003B6813430B60634B1B6803F007033A6815
:103B7C009A4201D00123B8E07B681B6803F0020372
:103B8C00002B20D07B681B6803F00403002B05D0AE
:103B9C00594B5B68584A43F4E06353607B681B687D
:103BAC0003F00803002B05D0534B5B68524A43F4D7
:103BBC0060535360504B5B6823F0F0027B689B684A
:103BCC004D4913434B607B681B6803F00103002BCA
:103BDC0040D07B685B68012B07D1474B1B6803F413
:103BEC000033002B15D101237FE07B685B68022B2F
:103BFC0007D1414B1B6803F00073002B09D1012343
:103C0C0073E03D4B1B6803F00203002B01D1012331
:103C1C006BE0394B5B6823F003027B685B683649C9
:103C2C0013434B60FEF726FDF8600AE0FEF722FD19
:103C3C000246FB68D31A41F28832934201D903231E
:103C4C0053E02D4B5B6803F00C027B685B689B00B8
:103C5C009A42EBD1274B1B6803F007033A689A4250
:103C6C0010D2244B1B6823F0070222493B681343F4
:103C7C000B60204B1B6803F007033A689A4201D093
:103C8C00012332E07B681B6803F00403002B08D08F
:103C9C00194B5B6823F4E0627B68DB6816491343BD
:103CAC004B607B681B6803F00803002B09D0124B98
:103CBC005B6823F460527B681B69DB000E4913437D
:103CCC004B6000F021F802460B4B5B681B0903F0BC
:103CDC000F030A49CB5C22FA03F3094A1360094B20
:103CEC001B681846FEF784FC002318461037BD46A7
:103CFC0080BD00BF0020024000100240806300081D
:103D0C00000000200400002080B487B000AF002326
:103D1C00FB600023BB6000237B6100237B600023DE
:103D2C003B611E4B5B68FB60FB6803F00C03042BD0
:103D3C0002D0082B03D027E0194B3B6127E0FB682E
:103D4C009B0C03F00F03174AD35C7B60FB6803F4F6
:103D5C008033002B10D0114B5B685B0C03F001031C
:103D6C00114AD35CBB607B680D4A03FB02F2BB6853
:103D7C00B2FBF3F37B6104E07B680C4A02FB03F3B8
:103D8C007B617B693B6102E0094B3B6100BF3B6996
:103D9C0018461C37BD4680BC704700BF001002405F
:103DAC00001BB70098630008A863000800093D00D9
:103DBC0000127A0080B400AF024B1B681846BD4657
:103DCC0080BC70470000002080B500AFFFF7F2FF09
:103DDC000246054B5B681B0A03F007030349CB5CE7
:103DEC0022FA03F3184680BD0010024090630008CD
:103DFC0080B500AFFFF7DEFF0246054B5B68DB0AC0
:103E0C0003F007030349CB5C22FA03F3184680BD89
:103E1C00001002409063000880B485B000AF786059
:103E2C000A4B1B680A4AA2FB03235B0A7A6802FB53
:103E3C0003F3FB6000BFFB685A1EFA60002BF9D13C
:103E4C0000BF00BF1437BD4680BC70470000002087
:103E5C00D34D621080B586B000AF786000233B6113
:103E6C000023FB607B681B6803F00103002B7DD0F3
:103E7C000023FB754F4BDB6903F08053002B0DD1F6
:103E8C004C4BDB694B4A43F08053D361494BDB69A4
:103E9C0003F08053BB60BB680123FB75464B1B686A
:103EAC0003F48073002B18D1434B1B68424A43F434
:103EBC0080731360FEF7DEFB386108E0FEF7DAFB77
:103ECC0002463B69D31A642B01D903236DE03A4BAC
:103EDC001B6803F48073002BF0D0364B1B6A03F481
:103EEC004073FB60FB68002B2ED07B685B6803F48F
:103EFC004073FA689A4227D02E4B1B6A23F4407306
:103F0C00FB602E4B01221A602C4B00221A60294AAE
:103F1C00FB681362FB6803F00103002B14D0FEF75F
:103F2C00A9FB38610AE0FEF7A5FB02463B69D31AF0
:103F3C0041F28832934201D9032336E01D4B1B6AB0
:103F4C0003F00203002BEED01A4B1B6A23F44072D1
:103F5C007B685B68174913430B62FB7D012B05D112
:103F6C00144BDB69134A23F08053D3617B681B68C5
:103F7C0003F00203002B08D00E4B5B6823F4404285
:103F8C007B689B680B4913434B607B681B6803F091
:103F9C001003002B08D0074B5B6823F480027B686E
:103FAC00DB68044913434B60002318461837BD46A1
:103FBC0080BD00BF0010024000700040400442422F
:103FCC0080B582B000AF78607B68002B01D10123F3
:103FDC0041E07B6893F83D30DBB2002B06D17B6867
:103FEC00002283F83C207868FEF704F87B680222F4
:103FFC0083F83D207B681A687B68043319461046A9
:10400C0000F0ACFF7B68012283F846207B6801221C
:10401C0083F83E207B68012283F83F207B680122D5
:10402C0083F840207B68012283F841207B680122C1
:10403C0083F842207B68012283F843207B680122AD
:10404C0083F844207B68012283F845207B68012299
:10405C0083F83D20002318460837BD4680BD00007C
:10406C0080B485B000AF78607B6893F83D30DBB2EC
:10407C00012B01D0012332E07B68022283F83D2022
:10408C007B681B68184A93420ED07B681B68B3F19F
:10409C00804F09D07B681B68144A934204D07B681C
:1040AC001B68134A934211D17B681B689B6803F011
:1040BC000703FB60FB68062B10D07B681B681A6833
:1040CC007B681B6842F001021A6007E07B681B6882
:1040DC001A687B681B6842F001021A6000231846BC
:1040EC001437BD4680BC7047002C014000040040D2
:1040FC000008004080B485B000AF78607B6893F80E
:10410C003D30DBB2012B01D001233AE07B68022267
:10411C0083F83D207B681B68DA687B681B6842F07B
:10412C000102DA607B681B68184A93420ED07B68E8
:10413C001B68B3F1804F09D07B681B68144A93420B
:10414C0004D07B681B68134A934211D17B681B68AF
:10415C009B6803F00703FB60FB68062B10D07B68A1
:10416C001B681A687B681B6842F001021A6007E042
:10417C007B681B681A687B681B6842F001021A6036
:10418C00002318461437BD4680BC7047002C0140F4
:10419C00000400400008004080B582B000AF786099
:1041AC007B68002B01D1012341E07B6893F83D3003
:1041BC00DBB2002B06D17B68002283F83C207868A8
:1041CC0000F039F87B68022283F83D207B681A687E
:1041DC007B6804331946104600F0C0FE7B68012250
:1041EC0083F846207B68012283F83E207B680122FD
:1041FC0083F83F207B68012283F840207B680122F2
:10420C0083F841207B68012283F842207B680122DD
:10421C0083F843207B68012283F844207B680122C9
:10422C0083F845207B68012283F83D200023184643
:10423C000837BD4680BD80B483B000AF786000BF46
:10424C000C37BD4680BC704780B584B000AF786039
:10425C0039603B68002B09D17B6893F83E30DBB2A8
:10426C00012B14BF01230023DBB222E03B68042B9B
:10427C0009D17B6893F83F30DBB2012B14BF0123CB
:10428C000023DBB215E03B68082B09D17B6893F85F
:10429C004030DBB2012B14BF01230023DBB208E05A
:1042AC007B6893F84130DBB2012B14BF0123002350
:1042BC00DBB2002B01D001235EE03B68002B04D164
:1042CC007B68022283F83E2013E03B68042B04D168
:1042DC007B68022283F83F200BE03B68082B04D15B
:1042EC007B68022283F8402003E07B68022283F87B
:1042FC0041207B681B6801223968184601F0BAF826
:10430C007B681B681E4A934207D17B681B685A6CFA
:10431C007B681B6842F400425A647B681B68184A2D
:10432C0093420ED07B681B68B3F1804F09D07B6839
:10433C001B68144A934204D07B681B68124A934250
:10434C0011D17B681B689B6803F00703FB60FB685B
:10435C00062B10D07B681B681A687B681B6842F0C0
:10436C0001021A6007E07B681B681A687B681B688F
:10437C0042F001021A60002318461037BD4680BD7A
:10438C00002C0140000400400008004080B586B0BD
:10439C0000AFF860B9607A607B800023FB75BB6866
:1043AC00002B09D1FB6893F83E30DBB2022B0CBF1B
:1043BC0001230023DBB222E0BB68042B09D1FB688C
:1043CC0093F83F30DBB2022B0CBF01230023DBB28E
:1043DC0015E0BB68082B09D1FB6893F84030DBB2C1
:1043EC00022B0CBF01230023DBB208E0FB6893F81F
:1043FC004130DBB2022B0CBF01230023DBB2002BBC
:10440C0001D0022353E1BB68002B09D1FB6893F860
:10441C003E30DBB2012B0CBF01230023DBB222E0C8
:10442C00BB68042B09D1FB6893F83F30DBB2012B3E
:10443C000CBF01230023DBB215E0BB68082B09D1AC
:10444C00FB6893F84030DBB2012B0CBF0123002337
:10445C00DBB208E0FB6893F84130DBB2012B0CBFF8
:10446C0001230023DBB2002B24D07B68002B02D06D
:10447C007B88002B01D1012319E1BB68002B04D1EF
:10448C00FB68022283F83E2016E0BB68042B04D1A3
:10449C00FB68022283F83F200EE0BB68082B04D196
:1044AC00FB68022283F8402006E0FB68022283F8B6
:1044BC00412001E00123FAE0BB680C2B00F2AE8036
:1044CC0001A252F823F000BF094500082946000854
:1044DC0029460008294600085145000829460008CD
:1044EC002946000829460008994500082946000875
:1044FC002946000829460008E1450008FB685B6A6C
:10450C006D4A9A62FB685B6A6C4ADA62FB685B6AAA
:10451C006B4A1A63FB68586A7968FB681B6834330A
:10452C001A467B88FEF74EFC0346002B01D0012374
:10453C00BDE0FB681B68DA68FB681B6842F400721C
:10454C00DA606EE0FB689B6A5B4A9A62FB689B6A66
:10455C005A4ADA62FB689B6A594A1A63FB68986A82
:10456C007968FB681B6838331A467B88FEF72AFC8F
:10457C000346002B01D0012399E0FB681B68DA6825
:10458C00FB681B6842F48062DA604AE0FB68DB6A15
:10459C00494A9A62FB68DB6A484ADA62FB68DB6A62
:1045AC00474A1A63FB68D86A7968FB681B683C3316
:1045BC001A467B88FEF706FC0346002B01D001232C
:1045CC0075E0FB681B68DA68FB681B6842F40062E4
:1045DC00DA6026E0FB681B6B374A9A62FB681B6B40
:1045EC00364ADA62FB681B6B354A1A63FB68186B38
:1045FC007968FB681B6840331A467B88FEF7E2FB40
:10460C000346002B01D0012351E0FB681B68DA68DC
:10461C00FB681B6842F48052DA6002E00123FB75F0
:10462C0000BFFB7D002B41D1FB681B680122B968E0
:10463C00184600F01FFFFB681B68224A934207D103
:10464C00FB681B685A6CFB681B6842F400425A6496
:10465C00FB681B681B4A93420ED0FB681B68B3F1C6
:10466C00804F09D0FB681B68174A934204D0FB6843
:10467C001B68164A934211D1FB681B689B6803F0B8
:10468C0007033B613B69062B10D0FB681B681A685B
:10469C00FB681B6842F001021A6007E0FB681B68AC
:1046AC001A68FB681B6842F001021A60FB7D184611
:1046BC001837BD4680BD00BF594E0008014F000899
:1046CC00C74D0008002C01400004004000080040C9
:1046DC0080B584B000AF786039600023FB733B6811
:1046EC000C2B55D801A252F823F000BF2D4700081F
:1046FC009D4700089D4700089D4700084947000852
:10470C009D4700089D4700089D4700086547000825
:10471C009D4700089D4700089D47000881470008F9
:10472C007B681B68DA687B681B6822F40072DA60AD
:10473C007B685B6A1846FEF7E1FB2CE07B681B6824
:10474C00DA687B681B6822F48062DA607B689B6A9B
:10475C001846FEF7D3FB1EE07B681B68DA687B68A3
:10476C001B6822F40062DA607B68DB6A1846FEF78D
:10477C00C5FB10E07B681B68DA687B681B6822F459
:10478C008052DA607B681B6B1846FEF7B7FB02E0C1
:10479C000123FB7300BFFB7B002B57D17B681B688D
:1047AC0000223968184600F065FE7B681B682A4AAF
:1047BC00934217D17B681B681A6A41F2111313409C
:1047CC00002B0FD17B681B681A6A40F244431340DC
:1047DC00002B07D17B681B685A6C7B681B6822F422
:1047EC0000425A647B681B681A6A41F21113134029
:1047FC00002B0FD17B681B681A6A40F244431340AC
:10480C00002B07D17B681B681A687B681B6822F039
:10481C0001021A603B68002B04D17B68012283F8EB
:10482C003E2013E03B68042B04D17B68012283F803
:10483C003F200BE03B68082B04D17B68012283F8F6
:10484C00402003E07B68012283F84120FB7B184663
:10485C001037BD4680BD00BF002C014080B584B030
:10486C0000AF78607B681B68DB68FB607B681B684B
:10487C001B69BB60BB6803F00203002B20D0FB68F4
:10488C0003F00203002B1BD07B681B686FF0020245
:10489C001A617B6801221A777B681B689B6903F09D
:1048AC000303002B03D0786800F063FA05E0786806
:1048BC0000F056FA7868FDF72BF97B6800221A771E
:1048CC00BB6803F00403002B20D0FB6803F0040347
:1048DC00002B1BD07B681B686FF004021A617B688D
:1048EC0002221A777B681B689B6903F44073002BC8
:1048FC0003D0786800F03DFA05E0786800F030FAF3
:10490C007868FDF705F97B6800221A77BB6803F01D
:10491C000803002B20D0FB6803F00803002B1BD0EE
:10492C007B681B686FF008021A617B6804221A7797
:10493C007B681B68DB6903F00303002B03D07868EA
:10494C0000F017FA05E0786800F00AFA7868FDF7CD
:10495C00DFF87B6800221A77BB6803F01003002B8A
:10496C0020D0FB6803F01003002B1BD07B681B6866
:10497C006FF010021A617B6808221A777B681B683B
:10498C00DB6903F44073002B03D0786800F0F1F975
:10499C0005E0786800F0E4F97868FDF7B9F87B6811
:1049AC0000221A77BB6803F00103002B0CD0FB68C4
:1049BC0003F00103002B07D07B681B686FF001022A
:1049CC001A61786800F0C3F9BB6803F08003002B10
:1049DC000CD0FB6803F08003002B07D07B681B68AE
:1049EC006FF080021A61786800F0CFFDBB6803F0AD
:1049FC004003002B0CD0FB6803F04003002B07D0C6
:104A0C007B681B686FF040021A61786800F0C3F98C
:104A1C00BB6803F02003002B0CD0FB6803F02003D1
:104A2C00002B07D07B681B686FF020021A61786836
:104A3C0000F0A2FD00BF1037BD4680BD80B586B02A
:104A4C0000AFF860B9607A600023FB75FB6893F8DF
:104A5C003C30012B01D10223AEE0FB68012283F82C
:104A6C003C207B680C2B00F29F8001A252F823F0B3
:104A7C00B14A0008B54B0008B54B0008B54B00080F
:104A8C00F14A0008B54B0008B54B0008B54B0008BF
:104A9C00334B0008B54B0008B54B0008B54B00086C
:104AAC00734B0008FB681B68B968184600F0C4FA21
:104ABC00FB681B689A69FB681B6842F008029A61E4
:104ACC00FB681B689A69FB681B6822F004029A61F8
:104ADC00FB681B689969BB681A69FB681B680A4309
:104AEC009A6164E0FB681B68B968184600F00AFB21
:104AFC00FB681B689A69FB681B6842F400629A6148
:104B0C00FB681B689A69FB681B6822F480629A61D7
:104B1C00FB681B689969BB681B691A02FB681B68F8
:104B2C000A439A6143E0FB681B68B968184600F0B9
:104B3C0053FBFB681B68DA69FB681B6842F00802D0
:104B4C00DA61FB681B68DA69FB681B6822F00402F7
:104B5C00DA61FB681B68D969BB681A69FB681B685A
:104B6C000A43DA6123E0FB681B68B968184600F059
:104B7C009DFBFB681B68DA69FB681B6842F40062EA
:104B8C00DA61FB681B68DA69FB681B6822F48062D7
:104B9C00DA61FB681B68D969BB681B691A02FB6880
:104BAC001B680A43DA6102E00123FB7500BFFB6856
:104BBC00002283F83C20FB7D18461837BD4680BD8B
:104BCC0080B584B000AF786039600023FB737B68DC
:104BDC0093F83C30012B01D10223B4E07B68012215
:104BEC0083F83C207B68022283F83D207B681B689D
:104BFC009B68BB60BB6823F07703BB60BB6823F486
:104C0C007F43BB607B681B68BA689A603B681B6813
:104C1C00B3F5005F3ED0B3F5005F00F28780B3F5CB
:104C2C00805F00F08680B3F5805F7FD8702B1AD040
:104C3C00702B7BD8602B50D0602B77D8502B3CD06E
:104C4C00502B73D8402B58D0402B6FD8302B64D0BE
:104C5C00302B6BD8202B60D0202B67D8002B5CD04E
:104C6C00102B5AD062E07B6818683B6899683B68E7
:104C7C005A683B68DB6800F0DEFB7B681B689B684E
:104C8C00BB60BB6843F07703BB607B681B68BA688A
:104C9C009A604FE07B6818683B6899683B685A6873
:104CAC003B68DB6800F0C7FB7B681B689A687B6815
:104CBC001B6842F480429A603CE07B6818683B6851
:104CCC0059683B68DB681A4600F03EFB7B681B6842
:104CDC005021184600F095FB2CE07B6818683B6867
:104CEC0059683B68DB681A4600F05CFB7B681B6804
:104CFC006021184600F085FB1CE07B6818683B6857
:104D0C0059683B68DB681A4600F01EFB7B681B6821
:104D1C004021184600F075FB0CE07B681A683B6874
:104D2C001B681946104600F06CFB03E00123FB7373
:104D3C0000E000BF7B68012283F83D207B680022E5
:104D4C0083F83C20FB7B18461037BD4680BD80B4F1
:104D5C0083B000AF786000BF0C37BD4680BC704795
:104D6C0080B483B000AF786000BF0C37BD4680BC08
:104D7C00704780B483B000AF786000BF0C37BD467D
:104D8C0080BC704780B483B000AF786000BF0C3734
:104D9C00BD4680BC704780B483B000AF786000BF64
:104DAC000C37BD4680BC704780B483B000AF7860D0
:104DBC0000BF0C37BD4680BC704780B584B000AFD7
:104DCC0078607B685B6AFB60FB685B6A7A689A4216
:104DDC0007D1FB6801221A77FB68012283F83E2079
:104DEC002AE0FB689B6A7A689A4207D1FB68022228
:104DFC001A77FB68012283F83F201DE0FB68DB6A11
:104E0C007A689A4207D1FB6804221A77FB68012260
:104E1C0083F8402010E0FB681B6B7A689A4207D13C
:104E2C00FB6808221A77FB68012283F8412003E013
:104E3C00FB68012283F83D20F868FFF7B5FFFB689B
:104E4C0000221A7700BF1037BD4680BD80B584B0F4
:104E5C0000AF78607B685B6AFB60FB685B6A7A68B2
:104E6C009A420BD1FB6801221A777B689B69002B55
:104E7C0036D1FB68012283F83E2031E0FB689B6A47
:104E8C007A689A420BD1FB6802221A777B689B697D
:104E9C00002B25D1FB68012283F83F2020E0FB6822
:104EAC00DB6A7A689A420BD1FB6804221A777B681A
:104EBC009B69002B14D1FB68012283F840200FE082
:104ECC00FB681B6B7A689A420AD1FB6808221A7736
:104EDC007B689B69002B03D1FB68012283F841207E
:104EEC00F868FCF715FEFB6800221A7700BF103734
:104EFC00BD4680BD80B584B000AF78607B685B6ACE
:104F0C00FB60FB685B6A7A689A4203D1FB680122FA
:104F1C001A7719E0FB689B6A7A689A4203D1FB689E
:104F2C0002221A7710E0FB68DB6A7A689A4203D196
:104F3C00FB6804221A7707E0FB681B6B7A689A42BD
:104F4C0002D1FB6808221A77F868FFF71BFFFB6891
:104F5C0000221A7700BF1037BD4680BD80B485B0E3
:104F6C0000AF786039607B681B68FB607B682F4AF8
:104F7C0093420BD07B68B3F1804F07D07B682C4AEF
:104F8C00934203D07B682B4A934208D1FB6823F0F1
:104F9C007003FB603B685B68FA681343FB607B68DB
:104FAC00224A93420BD07B68B3F1804F07D07B68C9
:104FBC001F4A934203D07B681E4A934208D1FB6878
:104FCC0023F44073FB603B68DB68FA681343FB60B7
:104FDC00FB6823F080023B685B691343FB607B68D2
:104FEC00FA681A603B689A687B68DA623B681A68F0
:104FFC007B689A627B680D4A934203D13B681A69BD
:10500C007B681A637B6801225A617B681B6903F019
:10501C000103002B05D07B681B6923F001027B6820
:10502C001A6100BF1437BD4680BC7047002C01408C
:10503C00000400400008004080B487B000AF7860E6
:10504C0039607B681B6A7B617B681B6A23F00102F9
:10505C007B681A627B685B683B617B689B69FB6061
:10506C00FB6823F07003FB60FB6823F00303FB6019
:10507C003B681B68FA681343FB607B6923F00203EF
:10508C007B613B689B687A6913437B617B681C4A34
:10509C0093420CD17B6923F008037B613B68DB688E
:1050AC007A6913437B617B6923F004037B617B6822
:1050BC00134A934211D13B6923F480733B613B69E2
:1050CC0023F400733B613B685B693A6913433B61B2
:1050DC003B689B693A6913433B617B683A695A6048
:1050EC007B68FA689A613B685A687B685A637B688C
:1050FC007A691A6200BF1C37BD4680BC704700BF7E
:10510C00002C014080B487B000AF786039607B68B8
:10511C001B6A7B617B681B6A23F010027B681A6236
:10512C007B685B683B617B689B69FB60FB6823F475
:10513C00E043FB60FB6823F44073FB603B681B6837
:10514C001B02FA681343FB607B6923F020037B612D
:10515C003B689B681B017A6913437B617B681D4A22
:10516C0093420DD17B6923F080037B613B68DB6844
:10517C001B017A6913437B617B6923F040037B61DC
:10518C007B68144A934213D13B6923F480633B61DF
:10519C003B6923F400633B613B685B699B003A69A4
:1051AC0013433B613B689B699B003A6913433B612A
:1051BC007B683A695A607B68FA689A613B685A68FE
:1051CC007B689A637B687A691A6200BF1C37BD469C
:1051DC0080BC7047002C014080B487B000AF786071
:1051EC0039607B681B6A7B617B681B6A23F4807265
:1051FC007B681A627B685B683B617B68DB69FB6080
:10520C00FB6823F07003FB60FB6823F00303FB6077
:10521C003B681B68FA681343FB607B6923F40073DB
:10522C007B613B689B681B027A6913437B617B68DB
:10523C001D4A93420DD17B6923F400637B613B686B
:10524C00DB681B027A6913437B617B6923F48063FF
:10525C007B617B68144A934213D13B6923F48053DE
:10526C003B613B6923F400533B613B685B691B0169
:10527C003A6913433B613B689B691B013A691343D1
:10528C003B617B683A695A607B68FA68DA613B6813
:10529C005A687B68DA637B687A691A6200BF1C37CC
:1052AC00BD4680BC704700BF002C014080B487B065
:1052BC0000AF786039607B681B6A3B617B681B6A56
:1052CC0023F480527B681A627B685B687B617B6825
:1052DC00DB69FB60FB6823F4E043FB60FB6823F4B1
:1052EC004073FB603B681B681B02FA681343FB604E
:1052FC003B6923F400533B613B689B681B033A6991
:10530C0013433B617B680F4A934209D17B6923F4B9
:10531C0080437B613B685B699B017A6913437B61CA
:10532C007B687A695A607B68FA68DA613B685A680C
:10533C007B681A647B683A691A6200BF1C37BD46E9
:10534C0080BC7047002C014080B487B000AFF8607F
:10535C00B9607A60FB681B6A7B61FB681B6A23F08F
:10536C000102FB681A62FB689B693B613B6923F095
:10537C00F0033B617B681B013A6913433B617B691A
:10538C0023F00A037B617A69BB6813437B61FB687A
:10539C003A699A61FB687A691A6200BF1C37BD468C
:1053AC0080BC704780B487B000AFF860B9607A6099
:1053BC00FB681B6A7B61FB681B6A23F01002FB68AD
:1053CC001A62FB689B693B613B6923F470433B6148
:1053DC007B681B033A6913433B617B6923F0A00391
:1053EC007B61BB681B017A6913437B61FB683A697B
:1053FC009A61FB687A691A6200BF1C37BD4680BC93
:10540C00704780B485B000AF786039607B689B686A
:10541C00FB60FB6823F07003FB603A68FB68134386
:10542C0043F00703FB607B68FA689A6000BF14378F
:10543C00BD4680BC704780B487B000AFF860B960DF
:10544C007A603B60FB689B687B617B6923F47F43DC
:10545C007B613B681A027B681A43BB6813437A6909
:10546C0013437B61FB687A699A6000BF1C37BD46A9
:10547C0080BC704780B487B000AFF860B9607A60C8
:10548C00BB6803F01F03012202FA03F37B61FB6884
:10549C001A6A7B69DB431A40FB681A62FB681A6A5A
:1054AC00BB6803F01F03796801FA03F31A43FB6826
:1054BC001A6200BF1C37BD4680BC704780B485B0F3
:1054CC0000AF786039607B6893F83C30012B01D1D8
:1054DC00022346E07B68012283F83C207B68022291
:1054EC0083F83D207B681B685B68FB607B681B68EE
:1054FC009B68BB60FB6823F07003FB603B681B6818
:10550C00FA681343FB607B681B68FA685A607B6817
:10551C001B68164A93420ED07B681B68B3F1804F10
:10552C0009D07B681B68124A934204D07B681B68C5
:10553C00104A93420CD1BB6823F08003BB603B68DC
:10554C005B68BA681343BB607B681B68BA689A6077
:10555C007B68012283F83D207B68002283F83C2085
:10556C00002318461437BD4680BC7047002C014000
:10557C00000400400008004080B483B000AF7860A5
:10558C0000BF0C37BD4680BC704780B483B000AF01
:10559C00786000BF0C37BD4680BC704780B582B0C8
:1055AC0000AF78607B68002B01D1012342E07B685F
:1055BC0093F84130DBB2002B06D17B68002283F8D4
:1055CC0040207868FCF718FE7B68242283F8412081
:1055DC007B681B68DA687B681B6822F40052DA600F
:1055EC00786800F0F9FD7B681B681A697B681B689A
:1055FC0022F490421A617B681B685A697B681B68AD
:10560C0022F02A025A617B681B68DA687B681B6887
:10561C0042F40052DA607B6800225A647B682022D4
:10562C0083F841207B68202283F842207B6800228B
:10563C005A63002318460837BD4680BD80B58AB032
:10564C0002AFF860B9603B601346FB8000237B61BE
:10565C00FB6893F84130DBB2202B75D1BB68002B73
:10566C0002D0FB88002B01D101236EE0FB680022E5
:10567C005A64FB68212283F84120FCF7FBFF786118
:10568C00FB68FA889A84FB68FA88DA84FB689B6862
:10569C00B3F5805F08D1FB681B69002B04D1002394
:1056AC00FB61BB68BB6103E0BB68FB610023BB61B2
:1056BC002EE03B6800937B6900228021F86800F0A3
:1056CC0097FB0346002B05D0FB68202283F8412072
:1056DC0003233AE0FB69002B0BD1BB691B881A46EC
:1056EC00FB681B68C2F308025A60BB690233BB61DA
:1056FC0007E0FB691A78FB681B685A60FB69013389
:10570C00FB61FB68DB8C9BB2013B9AB2FB68DA84D1
:10571C00FB68DB8C9BB2002BCBD13B6800937B6985
:10572C0000224021F86800F063FB0346002B05D0F3
:10573C00FB68202283F84120032306E0FB6820222B
:10574C0083F84120002300E0022318462037BD4691
:10575C0080BD80B58AB002AFF860B9603B6013467B
:10576C00FB8000237B61FB6893F84230DBB2202B7B
:10577C0040F08180BB68002B02D0FB88002B01D14C
:10578C00012379E0FB6800225A64FB68222283F82B
:10579C004220FB6800221A63FCF76CFF7861FB68FF
:1057AC00FA889A85FB68FA88DA85FB689B68B3F5FA
:1057BC00805F08D1FB681B69002B04D10023FB61BF
:1057CC00BB68BB6103E0BB68FB610023BB6147E0C6
:1057DC003B6800937B6900222021F86800F008FBED
:1057EC000346002B05D0FB68202283F842200323BC
:1057FC0042E0FB69002B0CD1FB681B685B689BB219
:10580C00C3F308039AB2BB691A80BB690233BB614C
:10581C001FE0FB689B68B3F5805F07D0FB689B6853
:10582C00002B0AD1FB681B69002B06D1FB681B6897
:10583C005B68DAB2FB691A7008E0FB681B685B688E
:10584C00DBB203F07F03DAB2FB691A70FB69013338
:10585C00FB61FB68DB8D9BB2013B9AB2FB68DA857E
:10586C00FB68DB8D9BB2002BB2D1FB68202283F846
:10587C004220002300E0022318462037BD4680BD9D
:10588C0080B5BAB000AF78607B681B681B68C7F83E
:10589C00E4307B681B68DB68C7F8E0307B681B680A
:1058AC005B69C7F8DC300023C7F8D8300023C7F891
:1058BC00D430D7F8E43003F00F03C7F8D830D7F85A
:1058CC00D830002B0FD1D7F8E43003F02003002B95
:1058DC0009D0D7F8E03003F02003002B03D0786810
:1058EC0000F0BCFB5BE2D7F8D830002B00F0DE8078
:1058FC00D7F8DC3003F00103002B06D1D7F8E030E9
:10590C0003F49073002B00F0D180D7F8E43003F04F
:10591C000103002B0BD0D7F8E03003F48073002B7D
:10592C0005D07B685B6C43F001027B685A64D7F846
:10593C00E43003F00403002B0BD0D7F8DC3003F079
:10594C000103002B05D07B685B6C43F002027B6883
:10595C005A64D7F8E43003F00203002B0BD0D7F8CD
:10596C00DC3003F00103002B05D07B685B6C43F04B
:10597C0004027B685A64D7F8E43003F00803002B68
:10598C0011D0D7F8E03003F02003002B05D1D7F865
:10599C00DC3003F00103002B05D07B685B6C43F01B
:1059AC0008027B685A647B685B6C002B00F0F28108
:1059BC00D7F8E43003F02003002B08D0D7F8E03000
:1059CC0003F02003002B02D0786800F047FB7B68C3
:1059DC001B685B6903F04003002B14BF01230023F9
:1059EC00DBB2C7F8D4307B685B6C03F00803002B88
:1059FC0003D1D7F8D430002B4FD0786800F051FA8F
:105A0C007B681B685B6903F04003002B41D07B680B
:105A1C001B681433C7F89C30D7F89C3053E8003F10
:105A2C00C7F89830D7F8983023F04003C7F8D03037
:105A3C007B681B681433D7F8D020C7F8A820C7F8A8
:105A4C00A430D7F8A410D7F8A82041E80023C7F851
:105A5C00A030D7F8A030002BD9D17B68DB6B002BA2
:105A6C0013D07B68DB6B7E4A5A637B68DB6B184612
:105A7C00FDF744FA0346002B16D07B68DB6B5B6B9F
:105A8C007A68D26B104698470EE0786800F09CF963
:105A9C000AE0786800F098F906E0786800F094F96C
:105AAC007B6800225A6475E100BF73E17B681B6B55
:105ABC00012B40F04F81D7F8E43003F01003002B9A
:105ACC0000F04881D7F8E03003F01003002B00F011
